{
  "contractName": "Registry",
  "abi": [
    {
      "inputs": [],
      "payable": false,
      "stateMutability": "nonpayable",
      "type": "constructor"
    },
    {
      "anonymous": false,
      "inputs": [
        {
          "indexed": false,
          "internalType": "uint256",
          "name": "contractId",
          "type": "uint256"
        },
        {
          "indexed": false,
          "internalType": "uint256",
          "name": "datetimeCreated",
          "type": "uint256"
        },
        {
          "indexed": false,
          "internalType": "address",
          "name": "creator",
          "type": "address"
        }
      ],
      "name": "ContractCreated",
      "type": "event"
    },
    {
      "anonymous": false,
      "inputs": [
        {
          "indexed": false,
          "internalType": "uint256",
          "name": "contractId",
          "type": "uint256"
        },
        {
          "indexed": false,
          "internalType": "uint256",
          "name": "datetimeSigned",
          "type": "uint256"
        },
        {
          "indexed": false,
          "internalType": "address",
          "name": "signer",
          "type": "address"
        }
      ],
      "name": "ContractSigned",
      "type": "event"
    },
    {
      "constant": true,
      "inputs": [
        {
          "internalType": "uint256",
          "name": "",
          "type": "uint256"
        }
      ],
      "name": "contracts",
      "outputs": [
        {
          "internalType": "string",
          "name": "content",
          "type": "string"
        },
        {
          "internalType": "uint256",
          "name": "datetimeCreated",
          "type": "uint256"
        },
        {
          "internalType": "uint256",
          "name": "creatorSignatoryId",
          "type": "uint256"
        },
        {
          "internalType": "uint256",
          "name": "amountRequiredSignatures",
          "type": "uint256"
        },
        {
          "internalType": "uint256",
          "name": "amountSigned",
          "type": "uint256"
        }
      ],
      "payable": false,
      "stateMutability": "view",
      "type": "function"
    },
    {
      "constant": true,
      "inputs": [],
      "name": "contractsCount",
      "outputs": [
        {
          "internalType": "uint256",
          "name": "",
          "type": "uint256"
        }
      ],
      "payable": false,
      "stateMutability": "view",
      "type": "function"
    },
    {
      "constant": true,
      "inputs": [
        {
          "internalType": "uint256",
          "name": "",
          "type": "uint256"
        },
        {
          "internalType": "uint256",
          "name": "",
          "type": "uint256"
        }
      ],
      "name": "signatories",
      "outputs": [
        {
          "internalType": "address",
          "name": "signatoryAddress",
          "type": "address"
        },
        {
          "internalType": "string",
          "name": "name",
          "type": "string"
        },
        {
          "internalType": "uint256",
          "name": "datetimeSigned",
          "type": "uint256"
        }
      ],
      "payable": false,
      "stateMutability": "view",
      "type": "function"
    },
    {
      "constant": false,
      "inputs": [
        {
          "internalType": "string",
          "name": "_name",
          "type": "string"
        },
        {
          "internalType": "string",
          "name": "_content",
          "type": "string"
        },
        {
          "internalType": "uint256",
          "name": "_amountSignatories",
          "type": "uint256"
        }
      ],
      "name": "createContract",
      "outputs": [],
      "payable": false,
      "stateMutability": "nonpayable",
      "type": "function"
    },
    {
      "constant": false,
      "inputs": [
        {
          "internalType": "uint256",
          "name": "_contractId",
          "type": "uint256"
        },
        {
          "internalType": "string",
          "name": "_name",
          "type": "string"
        }
      ],
      "name": "signContract",
      "outputs": [],
      "payable": false,
      "stateMutability": "nonpayable",
      "type": "function"
    }
  ],
  "bytecode": "0x60806040526000805534801561001457600080fd5b50610981806100246000396000f3fe608060405234801561001057600080fd5b50600436106100565760003560e01c80620fd1701461005b578063474da79a146100705780639d9dfeb11461009d578063c4fecdb6146100bf578063fea14f5e146100d4575b600080fd5b61006e610069366004610630565b6100e7565b005b61008361007e3660046106ac565b610204565b6040516100949594939291906107dc565b60405180910390f35b6100b06100ab366004610724565b6102b8565b604051610094939291906107ad565b6100c761038c565b604051610094919061082d565b61006e6100e23660046106d2565b610392565b6000805481526001602090815260408220845142939261010b918391880190610506565b5060018082018490556002820183905584810160038301556004820155610130610584565b50604080516060810182523381526020808201898152828401879052600080548152600283529384208054600180820180845592875295849020855160039092020180546001600160a01b0319166001600160a01b03909216919091178155915180519495919486946101a7938501920190610506565b50604082015181600201555050507ff5f990baeb36c54410688d81d354cda0452f0611033534842e880d2a7ee3f01f60005485336040516101ea9392919061083b565b60405180910390a150506000805460010190555050505050565b60016020818152600092835260409283902080548451600294821615610100026000190190911693909304601f81018390048302840183019094528383529283918301828280156102965780601f1061026b57610100808354040283529160200191610296565b820191906000526020600020905b81548152906001019060200180831161027957829003601f168201915b5050505050908060010154908060020154908060030154908060040154905085565b600260205281600052604060002081815481106102d157fe5b600091825260209182902060039091020180546001808301805460408051601f60026000199685161561010002969096019093169490940491820187900487028401870190528083526001600160a01b0390931696509294509283018282801561037c5780601f106103515761010080835404028352916020019161037c565b820191906000526020600020905b81548152906001019060200180831161035f57829003601f168201915b5050505050908060020154905083565b60005481565b60005482106103a057600080fd5b600082815260016020526040902060048101546003820154116103c257600080fd5b600160005b82600401548110156104215760008581526002602052604090208054339190839081106103f057fe5b60009182526020909120600390910201546001600160a01b031614156104195760009150610421565b6001016103c7565b508061042c57600080fd5b42610435610584565b506040805160608101825233815260208082018781528284018590526000898152600283529384208054600180820180845592875295849020855160039092020180546001600160a01b0319166001600160a01b03909216919091178155915180519495919486946104ab938501920190610506565b506040918201516002909101556004860180546001019055517f1b888c118c05ed34cb3df67b48ee7e2e0adb68e6b851122fd9ea804b8a3daa0991506104f69088908590339061083b565b60405180910390a1505050505050565b828054600181600116156101000203166002900490600052602060002090601f016020900481019282601f1061054757805160ff1916838001178555610574565b82800160010185558215610574579182015b82811115610574578251825591602001919060010190610559565b506105809291506105ae565b5090565b604051806060016040528060006001600160a01b0316815260200160608152602001600081525090565b6105c891905b8082111561058057600081556001016105b4565b90565b600082601f8301126105dc57600080fd5b81356105ef6105ea8261088a565b610863565b9150808252602083016020830185838301111561060b57600080fd5b6106168382846108e1565b50505092915050565b803561062a81610927565b92915050565b60008060006060848603121561064557600080fd5b833567ffffffffffffffff81111561065c57600080fd5b610668868287016105cb565b935050602084013567ffffffffffffffff81111561068557600080fd5b610691868287016105cb565b92505060406106a28682870161061f565b9150509250925092565b6000602082840312156106be57600080fd5b60006106ca848461061f565b949350505050565b600080604083850312156106e557600080fd5b60006106f1858561061f565b925050602083013567ffffffffffffffff81111561070e57600080fd5b61071a858286016105cb565b9150509250929050565b6000806040838503121561073757600080fd5b6000610743858561061f565b925050602061071a8582860161061f565b61075d816108d0565b82525050565b61075d816108bf565b6000610777826108b2565b61078181856108b6565b93506107918185602086016108ed565b61079a8161091d565b9093019392505050565b61075d816105c8565b606081016107bb8286610763565b81810360208301526107cd818561076c565b90506106ca60408301846107a4565b60a080825281016107ed818861076c565b90506107fc60208301876107a4565b61080960408301866107a4565b61081660608301856107a4565b61082360808301846107a4565b9695505050505050565b6020810161062a82846107a4565b6060810161084982866107a4565b61085660208301856107a4565b6106ca6040830184610754565b60405181810167ffffffffffffffff8111828210171561088257600080fd5b604052919050565b600067ffffffffffffffff8211156108a157600080fd5b506020601f91909101601f19160190565b5190565b90815260200190565b60006001600160a01b03821661062a565b600061062a82600061062a826108bf565b82818337506000910152565b60005b838110156109085781810151838201526020016108f0565b83811115610917576000848401525b50505050565b601f01601f191690565b610930816105c8565b811461093b57600080fd5b5056fea365627a7a723158206fb42531faa78aa8b1c228fff97ac72aa32cceec9c4c484e782f3df4a5bc0df86c6578706572696d656e74616cf564736f6c63430005100040",
  "source": "// SPDX-License-Identifier: UNLICENSED\r\npragma solidity >=0.5.16;\r\npragma experimental ABIEncoderV2;\r\n\r\ncontract Registry {\r\n  uint public contractsCount = 0;\r\n\r\n  struct Signatory {\r\n    address signatoryAddress;\r\n    string name;\r\n    uint datetimeSigned;\r\n  }\r\n\r\n  struct Contract {\r\n    string content;\r\n    uint datetimeCreated;\r\n    uint creatorSignatoryId;\r\n    uint amountRequiredSignatures;\r\n    uint amountSigned;\r\n  }\r\n\r\n  mapping(uint => Contract) public contracts;\r\n  mapping(uint => Signatory[]) public signatories;\r\n\r\n  event ContractCreated(\r\n    uint contractId,\r\n    uint datetimeCreated,\r\n    address creator\r\n  );\r\n\r\n  event ContractSigned(\r\n    uint contractId,\r\n    uint datetimeSigned,\r\n    address signer\r\n  );\r\n\r\n  constructor() public {}\r\n\r\n  function createContract(\r\n    string memory _name,\r\n    string memory _content,\r\n    uint _amountSignatories\r\n  ) public {\r\n    uint _datetimeCreated = block.timestamp;\r\n    uint _creatorSignatoryId = 0;\r\n\r\n    Contract storage newContract = contracts[contractsCount];\r\n    newContract.content = _content;\r\n    newContract.datetimeCreated = _datetimeCreated;\r\n    newContract.creatorSignatoryId = _creatorSignatoryId;\r\n    newContract.amountRequiredSignatures = _amountSignatories + 1;\r\n    newContract.amountSigned = 1;\r\n\r\n    Signatory memory _signatory = Signatory({\r\n      signatoryAddress: msg.sender,\r\n      name: _name,\r\n      datetimeSigned: _datetimeCreated\r\n    });\r\n\r\n    signatories[contractsCount].push(_signatory);\r\n\r\n    emit ContractCreated(contractsCount, _datetimeCreated, msg.sender);\r\n\r\n    contractsCount++;\r\n  }\r\n\r\n  function signContract(\r\n    uint _contractId,\r\n    string memory _name\r\n  ) public {\r\n    // check if id is valid\r\n    require(_contractId >= 0 && _contractId < contractsCount);\r\n\r\n    Contract storage _contract = contracts[_contractId];\r\n\r\n    // check if the contract need more signatures\r\n    require(_contract.amountRequiredSignatures > _contract.amountSigned);\r\n\r\n    bool _senderNotSigned = true;\r\n    for (uint i=0; i < _contract.amountSigned; i++) {\r\n      if (signatories[_contractId][i].signatoryAddress == msg.sender) {\r\n        _senderNotSigned = false;\r\n        break;\r\n      }\r\n    }\r\n    require(_senderNotSigned);\r\n\r\n    uint _datetimeSigned = block.timestamp;\r\n\r\n    Signatory memory _signatory = Signatory({\r\n      signatoryAddress: msg.sender,\r\n      name: _name,\r\n      datetimeSigned: _datetimeSigned\r\n    });\r\n\r\n    signatories[_contractId].push(_signatory);\r\n\r\n    _contract.amountSigned++;\r\n\r\n    emit ContractSigned(_contractId, _datetimeSigned, msg.sender);\r\n  }\r\n}\r\n",
  "sourcePath": "C:\\Users\\paulo\\Desktop\\projects\\personal\\registry-blockchain\\contracts\\Registry.sol",
  "compiler": {
    "name": "solc",
    "version": "0.5.16+commit.9c3226ce.Emscripten.clang"
  },
  "schemaVersion": "3.4.8",
  "updatedAt": "2022-07-19T15:47:23.906Z",
  "networkType": "ethereum",
  "devdoc": {
    "methods": {}
  },
  "userdoc": {
    "methods": {}
  }
}